:100000000C946B000C948A000C948A000C948A0067
:100010000C948A000C948A000C948A000C948A0038
:100020000C948A000C948A000C94F53D0C948A0080
:100030000C948A000C948A000C94CD3D0C948A0098
:100040000C94363E0C948A000C94A9440C948A00BB
:100050000C948A000C948A000C948A000C948A00F8
:100060000C948A000C948A000C948A000C948A00E8
:100070000C948A000C948A000C94FF440C948A001F
:100080000C948A000C948A000C948A00CC0BD10B3F
:10009000D40BCC0BD70BDA0BDA0BDA0BDA0BF50B34
:1000A000F50BF50BF50BF50BF50BDD0BE30BE60B89
:1000B000E00BF50BF20BF50BF50BF50BF50BEF0B5E
:1000C000F50BF50BEC0BF50BF50BF50BF50BF50B39
:1000D000F50BF50BE90B11241FBECFEFD0E1DEBF0E
:1000E000CDBF14E0A0E0B1E0EAE3F0EC00E00BBF2C
:1000F00002C007900D92A834B107D9F71FE0A8E419
:10010000B4E001C01D92A634B107E1F70E941715B3
:100110000C941B600C94000090E002C000009F5FF4
:100120009817E0F3089590E007C00F920F900F9298
:100130000F900F920F909F5F9817B8F30895E4E621
:10014000F0E0808180618083808188608083E5E643
:10015000F0E0808180618083808188608083089561
:100160000F931F93E4E6F0E08081806180838081BB
:100170008860808305E610E0F801808188608083D4
:1001800080818061808381E00E949300F8018081FA
:100190008F7E808384E00E949300F8018081877FB6
:1001A00080831F910F9108950F931F9305E610E030
:1001B000F80180818860808382E00E949300F801CA
:1001C0008081877F80831F910F910895A4E6B0E01E
:1001D0008C918F7E8C93E5E6F0E08081877F808331
:1001E0008081886080830000808100002081277FDB
:1001F00020832C9120612C9390E024E096958795A4
:100200002A95E1F781700895282F8091640080611C
:100210008093640080916500877F8093650090E003
:1002200027FF04C080916500806103C08091650054
:100230008F7E8093650000008091650088608093C8
:1002400065000000992311F4000000008091650012
:10025000877F809365009F5F983011F0220FE0CF79
:10026000809164008F7E8093640080E000008F5F47
:100270008D32E1F70E94E60008951F93282F8091A8
:1002800064008F7E80936400000090E010E0110F06
:100290008091650088608093650000000000000088
:1002A0008091630084FD116080916500877F809359
:1002B00065000000000000009F5F983041F780E07B
:1002C00000008F5F8035E1F7222369F4809164009C
:1002D000806180936400809165008F7E80936500CB
:1002E0000E94D40010C080916500886080936500F2
:1002F0000E94D40000000000000000008091650012
:10030000877F80936500812F1F91089580916400FD
:1003100080618093640080916500877F8093650091
:10032000809165008F7E8093650084E00E94930039
:100330008091650088608093650083E00E9493004F
:1003400080916500806180936500809164008F7E5C
:10035000809364008091940A882329F088E090E0DB
:100360000E94CA3E089582E890E00E94BD3E089532
:10037000DF92EF92FF920F931F93CF93DF938C0145
:10038000E62ED42EF52E1092940A0E94B00080EA38
:100390000E94040188E20E949300812F0E940401C0
:1003A00084E60E949300802F0E94040184E60E944C
:1003B00093000E94B00081EA0E94040186E40E943A
:1003C00093002D2D3F2DC901EC01FF240894E10875
:1003D000F10807C080E00E943D01899388E20E94F5
:1003E00093009E012D19822F90E08E159F0594F3A6
:1003F00081E00E943D01182F88E20E94930018833B
:100400000E948601DF91CF911F910F91FF90EF9095
:10041000DF900895FF920F931F938C011092940A1E
:1004200088B390E4892788BB0E94B00080EA0E94CC
:10043000040188E20E949300812F0E94040184E657
:100440000E949300802F0E94040184E60E94930082
:100450000E94B00081EA0E94040186E40E94930099
:1004600080E00E943D01F82E88E20E94930081E026
:100470000E943D01082F88E20E9493000E9486019D
:100480009F2D80E010E0082B192BC8011F910F91C0
:10049000FF9008950F931F938C011092940A0E946D
:1004A000B00080EA0E94040188E20E949300812F3C
:1004B0000E94040184E60E949300802F0E940401A0
:1004C00084E60E9493000E94B00081EA0E94040129
:1004D00086E40E94930081E00E943D01182F88E28B
:1004E0000E9493000E948601812F1F910F91089511
:1004F000DF92EF92FF920F931F93CF93DF937C01D4
:10050000D62E8A011092940AC0E0D0E009C0CE0134
:100510008E0D9F1D0E944A02F80181938F01219642
:10052000CD15A8F3DF91CF911F910F91FF90EF9020
:10053000DF900895EF92FF920F931F938C01E62EA8
:10054000F42E81E08093940A0E94B00080EA0E9419
:10055000040188E20E949300812F0E94040184E636
:100560000E949300802F0E94040184E60E94930061
:1005700010E007C08F2D0E94040184E60E949300C2
:100580001F5F1E15B8F30E9486011F910F91FF9007
:10059000EF900895DF92EF92FF920F931F93CF9306
:1005A000DF938C01D62EF42EE52E81E08093940A01
:1005B0000E94B00080EA0E94040188E20E94930039
:1005C000812F0E94040184E60E949300802F0E94E4
:1005D000040184E60E9493002F2D3E2DC901EC01F9
:1005E00010E007C089910E94040184E60E949300F4
:1005F0001F5F1D15B8F30E948601DF91CF911F91F7
:100600000F91FF90EF90DF900895EF92FF920F937C
:100610001F938C017B0181E08093940A0E94B000BB
:1006200080EA0E94040188E20E949300812F0E94C8
:10063000040184E60E949300802F0E94040184E656
:100640000E9493008F2D0E94040186E40E94930073
:100650008E2D0E94040186E40E9493000E94860170
:100660001F910F91FF90EF900895FF920F931F93AA
:100670008C01F62E81E08093940A0E94B00080EAFB
:100680000E94040188E20E949300812F0E940401CD
:1006900084E60E949300802F0E94040184E60E9459
:1006A00093008F2D0E94040186E40E9493000E9413
:1006B00086011F910F91FF9008958091520B88231E
:1006C00021F0C39902C0C39A0895C3980895C39AAC
:1006D00008952091250A263019F49091B00709C099
:1006E000273019F49091B20704C0283011F490918A
:1006F000AB0780E0291709F481E00895A091190A59
:10070000B0911A0AFD01399682E0A030B80710F4C2
:10071000BD0103C0BD016050724092E0E030F907B6
:1007200010F0E050F24080912A0A90912B0A382F65
:1007300020E0492F50E0422B532B50931D0B409348
:100740001C0B6E177F0728F44617570728F480E024
:1007500008C04617570720F480E0E417F50708F0B3
:1007600081E0AF5FBF4F09F481E04050524008F094
:1007700080E00895EF92FF920F931F938091260AD5
:10078000182F00E0E090270A81E09BE40E940A0213
:100790009093AD078093AC078091AC079091AD0723
:1007A00020E0FF240E291F290817190709F421E06A
:1007B000822F1F910F91FF90EF900895C39884E6C8
:1007C00090E00E94CA3EC39A08951F93A091190A0F
:1007D000B0911A0AFD01399682E0A030B80710F4F2
:1007E000AD0103C0AD014050524082E0E030F80757
:1007F00010F0E050F24080912A0A90912B0A382F95
:1008000020E0692F70E0622B732B70931D0B6093B7
:100810001C0B4E175F0728F46417750728F410E0C7
:1008200008C06417750720F410E0E617F70708F012
:1008300011E0AF5FBF4F09F411E082E0603078074C
:1008400010F010E006C0112321F08EE39BE40E941B
:100850000503812F1F91089581E09BE40E940A0205
:100860009093AD078093AC078091AC079091AD0752
:100870008F5F9F4F39F08091AC079091AD07805604
:10088000974079F52091260A922F80E02091270A3F
:1008900030E0822B932B9093AD078093AC0760914F
:1008A000AC077091AD0781E09BE40E94050385E0F1
:1008B00090E00E94CA3E8BE09BE461E00E94350319
:1008C00085E090E00E94CA3E0E943717C09A0E94BD
:1008D000090C86E990E00E94CA3E0E940B0CC09869
:1008E0000895C29A88EC90E00E94CA3EC29808958A
:1008F000FF920F931F938091250A813019F4009184
:10090000390A02C00091370A10E00D551A4D000F48
:10091000111FC8010E944A02F82EC80101960E94C8
:100920004A02282F80915A048F1558F080915A045A
:10093000F81610F490E006C08091590490E08217F8
:1009400008F491E08FEFF81611F02F3F09F490E0D2
:10095000892F1F910F91FF90089588E09BE40E94DA
:100960004A0280931B0B80911B0B8F3F19F483E687
:1009700080931B0B80911B0B8F5F80931B0B8091CF
:100980001B0B8436F9F030E081E040E0E32FF0E02B
:10099000EC5CF54FE081982F20E8582F585F822FAC
:1009A0008E2321F080911B0B981729F09F5F9517DC
:1009B00021F02695F4CF3AE041E03F5F353018F45E
:1009C000892FE4CF41E0842F089588E09BE40E94C2
:1009D0004A0280931B0B80911B0B8F3F19F483E617
:1009E00080931B0B80911B0B8F5F80931B0B80915F
:1009F0001B0B8436F9F030E081E040E0E32FF0E0BB
:100A0000EE5CF54FE081982F20E8582F585F822F39
:100A10008E2321F080911B0B981729F09F5F95176B
:100A200021F02695F4CF3AE041E03F5F353018F4ED
:100A3000892FE4CF41E0842F08950E948E2A2091CF
:100A40002E0A90912D0A50912C0A40915E04451770
:100A500050F420E030E0852F90E0841B91098A3526
:100A600091053CF524C0541750F420E030E0842F69
:100A700090E0851B91098A359105DCF018C08091C2
:100A80005D048917A0F080915D04981768F080914B
:100A90005C04281738F080915C04281741F422E0A8
:100AA00030E007C080915C0420E030E002C021E02B
:100AB00030E0822F089588B390E4892788BB809125
:100AC000E2079091E30781599140F8F08091B107D6
:100AD0008F5F8093B107863018F085E08093B1076F
:100AE00081E090E09093E3078093E20786E89BE43F
:100AF0006091B1070E94350386E090E00E94CA3EF3
:100B00008DE09BE461E00E9435038091E2079091C3
:100B1000E30725E0880F991F2A95E1F76EE145E587
:100B200057E00E94CA028091E2079091E307019684
:100B30009093E3078093E2078AE090E00E94CA3E28
:100B40006091E2077091E30787E89BE40E94050348
:100B500008950E948E2A8091250A809355078091DE
:100B6000260A809356078091270A80935707109290
:100B70005807109259078091280A80935A0780914C
:100B8000290A80935B0780912A0A80935C078091F1
:100B90002B0A80935D0780912C0A80935E078091D9
:100BA0002D0A80935F0780912E0A809360078091C1
:100BB0002F0A809361078091300A809362078091A9
:100BC000310A809363078091320A80936407809191
:100BD000330A809365078091340A80936607809179
:100BE000350A809367078091360A809368071092D0
:100BF00069070E948E2A80915E0480936A07809123
:100C00005D0480936B0780915C0480936C078091F6
:100C10005A0480936D078091590480936E078091E8
:100C2000580480936F078091AA07809370071092F1
:100C30007107109272070E945B0508950E948E2A28
:100C40008091250A809355078091260A8093560744
:100C50008091270A809357071092580710925907DE
:100C60008091280A80935A078091290A80935B0714
:100C700080912A0A80935C0780912B0A80935D07FC
:100C800080912C0A80935E0780912D0A80935F07E4
:100C900080912E0A8093600780912F0A80936107CC
:100CA0008091300A809362078091310A80936307B4
:100CB0008091320A809364078091330A809365079C
:100CC0008091340A809366078091350A8093670784
:100CD0008091360A80936807109269070E948E2AD5
:100CE00080915E0480936A0780915D0480936B0716
:100CF00080915C0480936C0780915A0480936D0707
:100D00008091590480936E078091580480936F07F7
:100D10008091AA0780937007109271071092720752
:100D20000E945B0508950E941E0608950E941E06FB
:100D300008950E948E2A88B390E4892788BB809109
:100D4000250A809355078091260A80935607809143
:100D5000270A809357078091280A8093580780912B
:100D6000290A809359078091280A80935A07809115
:100D7000290A80935B0780912A0A80935C078091FF
:100D80002B0A80935D0780912C0A80935E078091E7
:100D90002D0A80935F0780912E0A809360078091CF
:100DA0002F0A809361071092620710926307809167
:100DB000320A809364078091330A8093650780919B
:100DC000340A809366078091350A80936707809183
:100DD000360A809368078091370A809369070E94DA
:100DE0008E2A80915E0480936A0780915D048093CF
:100DF0006B0780915C0480936C0780915A04809308
:100E00006D078091590480936E07809158048093F8
:100E10006F078091AA078093700710927107109254
:100E200072070E945B0508951F9385E19BE40E9471
:100E30004A0280931A0B80911A0B8F3F19F482E0BB
:100E400080931A0B85E090E00E94CA3E10911A0B25
:100E500080911A0B882309F412E00E949A3E1092A6
:100E6000040D812F0E948B3E0E94F91581E0809332
:100E700054040E94FD1582E390E00E94CA3E0E9445
:100E800002161F9108951F930E94BA03882349F008
:100E900081E08093940780912A0A8093710811E081
:100EA00006C01092940781E08093AA0710E00E9488
:100EB000A9051123C1F00E94E91581E08093210B5F
:100EC000109254040E949A3E1092040D8091710871
:100ED0000E948B3E0E94FD1584E690E00E94CA3E6F
:100EE0000E94021602C00E9414071F9108951F93CA
:100EF00087E19BE40E944A028093770885E090E0B6
:100F00000E94CA3E809177088F3F19F483E0809356
:100F1000770880917708882319F483E08093770815
:100F2000109177080E949A3E1092040D812F0E9422
:100F30008B3E0E94F11581E0809354040E94FD15C0
:100F400082E390E00E94CA3E0E9402161F9108951B
:100F50000E94BA03882339F18EE39BE40E940A02BF
:100F600090931A0A8093190A0E94E5038823B9F026
:100F700060912C0A60937D0A85E09BE40E94350312
:100F800086E090E00E94CA3E60911C0B70911D0BA0
:100F90008EE39BE40E9405030E9477070BC010922A
:100FA000940783E003C01092940781E08093AA071E
:100FB0000E9414070E94A90508950F931F930E9491
:100FC000BA03882309F461C081E0809394078EE31B
:100FD0009BE40E940A0290931A0A8093190A0E94C5
:100FE000E503082F882309F44CC060912C0A70E0B7
:100FF00080E090E00E94375D0E94855960937708F9
:101000008091770886958695809377086091770818
:1010100087E19BE40E94350386E090E00E94CA3E8F
:1010200060912D0A70E080E090E00E94375D0E94A0
:10103000855960931A0B80911A0B8695869580933B
:101040001A0B60911A0B85E19BE40E94350386E040
:1010500090E00E94CA3E60912E0A70E06870707045
:1010600033E0759567953A95E1F76093520B81E50A
:1010700092E60E94350386E090E00E94CA3E11E0AD
:101080000AC01092940783E003C01092940781E095
:101090008093AA0710E00E94A905112369F000239C
:1010A00041F060911C0B70911D0B8EE39BE40E943C
:1010B00005030E94770702C00E9414071F910F9139
:1010C000089560912A0A60931B0B88E09BE40E94BC
:1010D000350386E090E00E94CA3E0E949A3E81E07D
:1010E0008093040D0E948B3E0E94770708958091A3
:1010F0002A0A80935B0480912B0A80935E0480917E
:101100002C0A80935D0480912D0A80935C04809169
:101110002E0A80935A0480912F0A8093590480915B
:10112000300A809358040E94E42A0E949A3E81E08B
:101130008093040D0E948B3E0E94770708951F93B1
:1011400021E02093940780912A0A10912B0A88238A
:10115000A9F06AE00E94C45F8093960A8091960A83
:10116000882311F42093960A6091960A8CE19BE4FF
:101170000E94350386E090E00E94CA3E1123B9F038
:10118000812F6AE00E94C45F80937708809177087E
:10119000882319F481E0809377086091770887E1CC
:1011A0009BE40E94350386E090E00E94CA3E0E94C4
:1011B0009A3E81E08093040D0E948B3E0E94770747
:1011C0001F91089520912A0A922F80E020912B0AE6
:1011D00030E0822B932B9093AD078093AC07609106
:1011E000AC077091AD0781E09BE40E94050386E0A7
:1011F00090E00E94CA3E0E949A3E81E08093040DD6
:101200000E948B3E0E94770708951F930E94BA03A5
:10121000882309F478C011E0109394078EE39BE4CF
:101220000E940A0290931A0A8093190A0E94E50309
:10123000882309F464C0109394078091280A782FBA
:1012400060E08091290A90E0682B792B83E09BE491
:101250000E94050386E090E00E94CA3E60912C0A3D
:101260006093120A89E09BE40E94350386E090E0D7
:101270000E94CA3E80912E0A8093B0076091B00709
:101280008FE19BE40E94350386E090E00E94CA3E15
:1012900080912F0A8093B2076091B20780E29BE4AD
:1012A0000E94350386E090E00E94CA3E8091300A99
:1012B0008093AB076091AB0781E29BE40E9435030A
:1012C00086E090E00E94CA3E6091310A60937D0AF8
:1012D00085E09BE40E94350386E090E00E94CA3ED0
:1012E0008091320A80931B0B60911B0B88E09BE47A
:1012F0000E94350386E090E00E94CA3E0AC0109228
:10130000940783E003C01092940781E08093AA07BA
:1013100010E00E94A905112351F00E949A3E1092FC
:10132000040D82E00E948B3E0E94770702C00E945B
:1013300014071F9108951F930E94BA03882389F10F
:1013400081E0809394078EE39BE40E940A029093CD
:101350001A0A8093190A0E94E5038823F1F080910C
:101360002C0A80935E0480912D0A80935D04809105
:101370002E0A80935C0480912F0A80935A048091F6
:10138000300A809359048091310A80935804109256
:1013900058040E94E42A11E00AC01092940783E0E6
:1013A00003C01092940781E08093AA0710E00E9486
:1013B000A905112351F00E949A3E1092040D82E07B
:1013C0000E948B3E0E94770702C00E9414071F9163
:1013D00008951F930E94BA03882309F457C011E0AF
:1013E000109394078EE39BE40E940A0290931A0ADA
:1013F0008093190A0E94E503882309F443C01093DF
:1014000094071093B0078FE19BE46FEF0E943503C0
:1014100086E090E00E94CA3E1093B20780E29BE40F
:101420006FEF0E94350386E090E00E94CA3E109361
:10143000AB0781E29BE46FEF0E94350386E090E00A
:101440000E94CA3E10921B0B88E09BE46FEF0E9443
:10145000350386E090E00E94CA3E86E29BE46AE1A2
:101460004FEF0E949A0287E090E00E94CA3E1092DD
:10147000DA0760911C0B70911D0B8EE39BE40E94B8
:1014800005030AC01092940783E003C010929407EA
:1014900081E08093AA0710E00E941E06112379F0D4
:1014A0000E949A3E1092040D82E00E948B3E0E94A0
:1014B00077078091DA0782608093DA0702C00E9482
:1014C00014071F9108950F931F930E94BA03882356
:1014D000D1F011E01093940780E39BE40E940A028C
:1014E00090931A0A8093190A0E947E03082F88237A
:1014F00019F0109394070EC01092940783E0809324
:10150000AA0710E007C01092940781E08093AA0711
:1015100010E000E00E941E06112379F0002341F044
:1015200060911C0B70911D0B80E39BE40E940503EE
:101530000E9477070E945D0302C00E9414071F915A
:101540000F9108951F930E94BA038823C1F00E944F
:101550001D058150823078F481E0809394070E94C9
:10156000E504813021F48093940711E00EC01092BD
:10157000940789E007C01092940782E003C010929C
:10158000940781E08093AA0710E00E941E061123B1
:1015900029F00E9477070E945D0302C00E94140791
:1015A0001F9108951F930E94BA03882379F081E068
:1015B000809394070E94E504813021F4809394077E
:1015C00011E00AC01092940789E003C010929407BA
:1015D00081E08093AA0710E00E949906112329F068
:1015E0000E9477070E945D030FC020E030E08091E9
:1015F000AA07F901E858FA4F80832F5F3F4F28323E
:101600003105A9F70E9414071F9108951F930E94A6
:10161000BA03882371F111E0109394070E941D050D
:10162000813049F4809394070E94E5048130A9F445
:101630008093940724C08230C1F4109394070E94D1
:101640007804813071F4809394070E94E50481301E
:1016500021F48093940711E012C01092940789E05E
:101660000BC01092940788E007C01092940782E0A4
:1016700003C01092940781E08093AA0710E00E94B3
:101680009906112329F00E9477070E945D030FC07D
:1016900020E030E08091AA07F901E858FA4F8083F2
:1016A0002F5F3F4F28323105A9F70E9414071F9181
:1016B00008951F930E94BA03882371F111E01093DB
:1016C00094070E941D05813049F4809394070E947D
:1016D000E5048130A9F48093940724C08230C1F4DA
:1016E000109394070E947804813071F480939407DA
:1016F0000E94E504813021F48093940711E012C028
:101700001092940789E00BC01092940788E007C0FC
:101710001092940782E003C01092940781E08093B6
:10172000AA0710E00E949906112329F00E9477076A
:101730000E945D030FC020E030E08091AA07F9010C
:10174000E858FA4F80832F5F3F4F28323105A9F7C1
:101750000E9414071F9108951F9310925504109131
:10176000250A1092AA0787E89BE40E940A02909338
:10177000E3078093E20788B390E4892788BBE12FD1
:10178000F0E0E532F10588F5EA5BFF4FEE0FFF1F51
:101790000590F491E02D09940E94590B80E090E0AF
:1017A0002EC00E94060BFACF0E94D20AF7CF0E94E9
:1017B000630AF4CF0E94A20AF1CF0E94E909EECF9A
:1017C0000E94DD07EBCF0E949B09E8CF0E9405092C
:1017D000E5CF0E94E208E2CF0E944307DFCF0E94DC
:1017E0002C04DCCF0E94A807D9CF0E9414070E94C6
:1017F0009A3E1092040D81E00E948B3ECFCFFC01F7
:10180000EB5DF54F1082019680329105C1F71F9173
:101810000895C79A0895C79808958091420E803A16
:1018200069F59091440E9130A9F480915304882376
:1018300029F110925304909354048091430E8093A5
:1018400057040E949A3E1092040D809157040E9402
:101850008B3E0895992391F480915304882371F06D
:101860001092530481E080935404109257040E9414
:101870009A3E1092040D8AE00E948B3E089590914A
:101880006C0B8091400E891799F48FE39EE066E01F
:1018900070E00E94CC15292F9091460E981741F4C4
:1018A00090E08091450E821391E081E0982701C07D
:1018B00090E0892F089580913C0E882341F00E948A
:1018C0003F0C882311F00E940D0C10923C0E0895DD
:1018D000FF920F931F93F82E82E090E00E94CA3E81
:1018E0001A9A01E71BE082E28093710B80916C0BE6
:1018F0008093720B88E08093730BF092740B81E0FD
:101900008093750BC80165E070E00E94CC15909340
:10191000760B8093770B83E28093780BC80168E0A5
:101920000E94A44583E090E00E94CA3E1A981F914D
:101930000F91FF900895F894E199FECF9FBB8EBB65
:101940006DBBE29AE19A78940895FF920F931F93EA
:101950008C01F62E672F0E949B0CC80101966F2DFB
:101960000E949B0C1F910F91FF900895F894E199AC
:10197000FECF9FBB8EBBE09A78948DB30895FF9203
:101980000F931F938C010E94B60CF82EC80101968C
:101990000E94B60C5F2D40E0282F30E0242B352B21
:1019A000C9011F910F91FF9008958091E607882348
:1019B00051F181E168E50E9480441092E60781E0E0
:1019C00080933C0E4091790850917A0820E030E0F5
:1019D0000AC0F901E15CF14FD901AE5EB64F8C91BE
:1019E00080832F5F3F4F2417350798F310927F0AAB
:1019F00010927E0A0E94A63981E08093170B81E144
:101A00006BE50E94804481E008950F931F9389E065
:101A100061E00E94804482E06091970A0E948044C5
:101A200082E06091980A0E94804482E06091990A65
:101A30000E94804481E064E10E94804482E390E05F
:101A40000E94CA3E10920D0884E00E94894480934F
:101A5000590A8AE00E9489448093E70781E060E0A8
:101A60000E9480448EE260E00E9480448091590A86
:101A7000882379F18091E70783FD2BC000E00EC039
:101A800010910D0882E00E948944E12FF0E0E956B0
:101A9000F54F80831F5F10930D080F5F8091590AE7
:101AA000081770F3E82FF0E0E956F54F3297808180
:101AB0003296803921F4319780818823C1F080915A
:101AC000990A8D3BA1F08091970A8A3F11F483E037
:101AD0000FC081E168E50E94804482E390E00E94AB
:101AE000CA3E81E16BE50E94804480E001C081E054
:101AF0001F910F910895FF920F931F93CF93DF9340
:101B0000F82E162F072F89E061E00E948044609133
:101B1000670B81E068276093670B82E00E94804436
:101B200082E060E00E94804482E060E00E948044A5
:101B300082E060ED0E94804482E060E80E94804480
:101B400082E061E00E94804482E06F2D0E94804428
:101B5000212F302FC901EC0110E005C082E069910E
:101B60000E9480441F5F1F15C8F382E060E00E945E
:101B7000804481E064E10E94804482E390E00E941E
:101B8000CA3E10920D0884E00E9489448093590A4D
:101B90008AE00E9489448093E70781E060E00E9428
:101BA00080448EE260E00E9480448091590A88233C
:101BB00061F18091E70783FD28C000E00EC010911D
:101BC0000D0882E00E948944E12FF0E0E956F54FCC
:101BD00080831F5F10930D080F5F8091590A0817CB
:101BE00070F38091970A8A3FF1F410E00E94050D8E
:101BF0008823D1F0813031F48091990A882399F0BB
:101C000082E012C01F5F133089F781E168E50E940E
:101C1000804482E390E00E94CA3E81E16BE50E942D
:101C2000804480E001C081E0DF91CF911F910F914E
:101C3000FF9008956F927F928F929F92AF92BF9282
:101C4000CF92DF92EF92FF920F931F93CF93DF9388
:101C50008091170B882309F44AC11092230A10922D
:101C6000220AB3E07B2EA8E26A2EFBE09F2EECE076
:101C70008E2E79E2B72E62E0A62ECC24C3948091FA
:101C8000FC0B9091FD0B909392098091FC0B90912D
:101C9000FD0B80939309109294097092600A8091D1
:101CA000BA0B8823D1F58091AD0B9091AE0B0997BB
:101CB00010F02FEF0FC08091AD0B9091AE0B9C01F7
:101CC00055E0220F331F5A95E1F7880F991F281B03
:101CD000390B255F60929509109296091092970929
:101CE000209398098091B50B809399098091B40B4A
:101CF00080939A0910929B098091AD0B9091AE0B45
:101D000090939C099092600A8091AD0B9091AE0BDC
:101D100080939D098092600A7DC08091BA0B8130CA
:101D200009F078C0C091030CD091040CC059D94F70
:101D30007E0195E0EE0CFF1C9A95E1F7C057D64066
:101D40008E0185E0000F111F8A95E1F7DD245AC04E
:101D50008091B20B9091B30B01969093B30B80934B
:101D6000B20BD3948091FF0C8823C9F421E0C139D0
:101D7000D20780F0C059D140D093B407C093B307C5
:101D8000C057DE4F1092B10786E89BE460E00E94E6
:101D9000350309C0D093B407C093B30706C081E0F0
:101DA000C139D80710F0C70101C0C8014091600ACD
:101DB00050E04E56564F6EE10E9478022091600A24
:101DC000E22FF0E08091B20B9091B30BEE56F64FFC
:101DD000948F8091B20B9091B30B858F225E2093EC
:101DE000600A80E290E0E80EF91E005E1F4FCE010F
:101DF000019623E0D21629F49093040C8093030CEF
:101E000009C0EC018091B00B9091B10B8C179D072C
:101E100008F09ECF8091BA0B823081F48091600AE5
:101E2000E82FF0E0EE56F64F10828F5FE82FF0E0DB
:101E3000EE56F64FB0828F5F8093600A8091600A01
:101E40008093940962E979E00E947B0D282F8091AC
:101E5000FC0B9091FD0B892B79F08091FC0B9091FC
:101E6000FD0B01979093FD0B8093FC0B8091FC0B75
:101E70009091FD0B892B19F41092170B38C0222377
:101E800009F58091FC0B9091FD0B01969093FD0B51
:101E90008093FC0B8091030C9091040C2D2D30E06D
:101EA000821B930B9093040C8093030C8091B20BD4
:101EB0009091B30B821B930B9093B30B8093B20B57
:101EC00080E015C02091B20B3091B30B8091AD0B27
:101ED0009091AE0B2817390710F0A092BA0B8091A1
:101EE000BA0B882309F0CBCEC092BA0BC8CEDF91D3
:101EF000CF911F910F91FF90EF90DF90CF90BF9007
:101F0000AF909F908F907F906F9008950F931F9345
:101F1000CF93DF938091170B882309F459C0109257
:101F2000230A1092220AE0917E0AF0917F0ACF01E3
:101F300064E670E00E94D05FEB01CF0164E670E0E0
:101F40000E94D05F892B09F0219603E01D2F10938A
:101F50009209C0939309109294090093600A6091CA
:101F60007E0A70917F0A2091220A3091230AD901BA
:101F7000AF56B74F93E040E0E92FF0E0EE56F64F52
:101F80008C9180839F5F2F5F3F4F6217730749F0EB
:101F90004F5F1196443681F73093230A2093220A2B
:101FA00004C07093230A6093220A9093600A809180
:101FB000600A8093940962E979E00E947B0D88238E
:101FC00039F0209721F2219709F0C0CF1092170B1A
:101FD000DF91CF911F910F9108950F931F9389E087
:101FE00061E00E9480446091670B81E06827609304
:101FF000670B82E00E94804482E060E00E9480449F
:1020000082E060E00E94804482E060EB0E948044B5
:1020100082E060E80E94804482E061E00E948044A7
:1020200082E060E00E94804481E064E10E9480449C
:1020300082E390E00E94CA3E10920D0884E00E9464
:1020400089448093590A8AE00E9489448093E70773
:1020500081E060E00E9480448EE260E00E94804463
:102060008091590A882309F448C08091E70783FDCD
:1020700044C000E00EC010910D0882E00E94894427
:10208000E12FF0E0E956F54F80831F5F10930D08B4
:102090000F5F8091590A081770F3E82FF0E0E956B6
:1020A000F54F329780813296803921F431978081C3
:1020B000882391F18091990A8D3B59F480919F0A70
:1020C000813849F584E690E00E94CA3E0C94007085
:1020D00022C08091970A8A3F81F410E00E94050D8A
:1020E0008823D9F0813031F48091990A8823A1F0B6
:1020F00082E013C01F5F133089F781E168E50E9419
:10210000804482E390E00E94CA3E81E16BE50E9438
:10211000804480E002C001C081E01F910F910895CA
:102120000F931F9389E061E00E9480446091670BE8
:1021300081E068276093670B82E00E94804482E020
:1021400060E00E94804482E060E00E94804482E07F
:1021500064EA0E94804482E064E00E94804482E05D
:1021600060E00E94804482E067E00E94804482E058
:1021700064ED0E94804482E060E10E94804482E03D
:1021800062E50E94804482E061E40E94804482E033
:1021900063E40E94804482E06FE40E94804482E015
:1021A00063E50E94804482E060E00E94804481E018
:1021B00064E10E94804482E390E00E94CA3E109253
:1021C0000D0884E00E9489448093590A8AE00E94A5
:1021D00089448093E70781E060E00E9480448EE2BA
:1021E00060E00E9480448091590A882309F449C024
:1021F0008091E70783FD45C000E00EC010910D08F7
:1022000082E00E948944E12FF0E0E956F54F808397
:102210001F5F10930D080F5F8091590A081770F324
:10222000E82FF0E0E956F54F3297808132968039F9
:1022300021F431978081882359F08091970A8A3F51
:1022400079F410E00E94050D8823D9F0813029F43B
:102250008091990A882399F410C01F5F133091F779
:1022600081E168E50E94804482E390E00E94CA3EDA
:1022700081E16BE50E94804404C081E003C082E0FC
:1022800001C080E01F910F9108951F93CF93DF93BA
:102290000E949010882309F451C08130B9F48091D4
:1022A000000D882319F40E94860F4AC00E941A0E5E
:1022B0008091FF0C882309F043C06091B3077091AF
:1022C000B40789E89BE40E9405033AC08230C1F557
:1022D00010927A08109279080E94ED0F882371F10C
:1022E0009091990A10919A0A80919B0A20917908FD
:1022F00030917A08ECE9FAE0D901AE5EB64F482F8A
:1023000050E0BA016756754F02C081918D93E61770
:10231000F707D9F723503040240F351F30937A0840
:1023200020937908D92FC0E0812F90E08C2B9D2B32
:10233000019791F681E08093E60703C080E001C039
:1023400081E0DF91CF911F91089581E16BE50E94BB
:10235000804482E16FE30E94804489E160E00E9452
:1023600080448CE165EC0E94804484E161E00E943D
:1023700080448EE161E00E94804481E266E00E9438
:10238000804486E262E00E94804484E090E00E9403
:10239000CA3E08959F92AF92BF92CF92DF92EF9282
:1023A000FF920F931F93DF93CF93CDB7DEB7A8971C
:1023B0000FB6F894DEBF0FBECDBF90E399838A833A
:1023C00085E1A82EB12CAC0EBD1E82E08E010F5F00
:1023D0001F4FB801A50122E00E942557982E88239F
:1023E00009F472C082E263E00E94804489E061E007
:1023F0000E9480448AE360E10E9480446801850174
:1024000076010CC087E2F80161918F010E9480443F
:1024100082E0F70161917F010E948044802F8A1938
:10242000891580F381E064E10E94804483E090E0BC
:102430000E94CA3E84E690E00E94BD3E8AE360E0CE
:102440000E94804484E00E948944809305068AE0CB
:102450000E9489448093040681E060E00E948044E9
:102460008EE260E00E94804480910506823161F531
:102470008E010D5E1F4F82E00E948944F601819318
:102480006F01E017F107B9F782E18E010F5F1F4F6F
:10249000B801AE014B5E5F4F24E00E942557982F94
:1024A00020E030E00AC0F801E20FF31F8081F9015B
:1024B000E25FF74F80832F5F3F4F2917A0F39923E7
:1024C00019F081E080930D0D80E0A8960FB6F89486
:1024D000DEBF0FBECDBFCF91DF911F910F91FF9057
:1024E000EF90DF90CF90BF90AF909F9008956F9244
:1024F0007F928F929F92AF92BF92CF92DF92EF9294
:10250000FF920F931F93DF93CF93CDB7DEB76497FE
:102510000FB6F894DEBF0FBECDBF182F062F82E294
:1025200067E00E94804489E061E00E9480441123BA
:1025300019F482E060E602C082E061E60E94804415
:1025400082E0602F0E94804481E064E10E94804428
:1025500080E293E00E94BD3E84E00E948944809323
:1025600005068AE00E9489448093040681E060E0C9
:102570000E9480448EE260E00E94804480910506C3
:10258000843009F0ACC08091040681FDA8C04E01E2
:102590000894811C911C54018E010B5F1F4F82E037
:1025A0000E948944F50181935F01E017F107B9F7B3
:1025B0008091DC058D838091DD058E838091DE0521
:1025C0008F838091DF05888739E0632E712C6C0E34
:1025D0007D1EF401D30181918D93EA15FB05D9F796
:1025E00025E0E22EF12CEC0EFD1E8E01035F1F4F45
:1025F00088E0B701A80120E00E94255782E263E04D
:102600000E94804489E061E00E9480448AE360E1A6
:102610000E948044CC24DD24F801EC0DFD1D87E2EE
:1026200060810E948044F701EC0DFD1D82E0608115
:102630000E9480440894C11CD11CF8E0CF16D1043C
:1026400059F781E064E10E94804480EA9FE00197AD
:10265000F1F78AE360E00E94804484E00E948944AC
:10266000809305068AE00E9489448093040681E0F5
:1026700060E00E9480448EE260E00E94804480918D
:102680000506843061F5870199E0C92ED12CCC0E66
:10269000DD1E82E00E948944F80181938F01EC15D0
:1026A000FD05B9F7F40181914F01F30181933F01D9
:1026B0008A149B04B9F788E0BE016B5F7F4FAE01BF
:1026C000435F5F4F21E00E942557813041F490E045
:1026D0008D818A3A09F091E081E0982701C090E06D
:1026E000892F64960FB6F894DEBF0FBECDBFCF9191
:1026F000DF911F910F91FF90EF90DF90CF90BF90EF
:10270000AF909F908F907F906F9008951F93CF937D
:10271000DF93182F8FE060E00E94804482E263E044
:102720000E94804489E061E00E94804482E0612F41
:102730000E94804482E060E20E94804481E064E183
:102740000E94804482E090E00E94CA3E84E00E94A1
:1027500089448093590A8AE00E9489448093E7075C
:1027600081E060E00E9480448EE260E00E9480444C
:102770008091590A853009F071C08091E70781FD89
:102780006DC0C0E0D0E082E00E948944FE01EC59B7
:10279000F54F80832196C530D105A9F782E26FE01D
:1027A0000E94804489E061E00E94804482E0612FC1
:1027B0000E94804482E060E70E9480446091640A45
:1027C00082E00E9480446091650A82E00E94804419
:1027D0006091660A82E00E9480446091670A82E00C
:1027E0000E9480446091680A82E00E94804481E0F7
:1027F00064E10E94804483E090E00E94CA3E84E04D
:102800000E9489448093590A8AE00E9489448093F7
:10281000E70781E060E00E9480448EE260E00E9471
:1028200080448091590A8130C9F48091E7078A7009
:10283000A9F482E00E9489448093790A847611F495
:1028400081E011C0843061F0843251F0803211F4A3
:1028500083E009C0803431F0803621F080E003C08D
:1028600082E001C085E0DF91CF911F91089588B388
:1028700090E4892788BB8FE067E00E94804482E271
:1028800063E00E94804489E061E00E94804482E02D
:1028900066E20E94804481E064E10E94804481E01D
:1028A00090E00E94CA3E84E00E948944809305061D
:1028B0008AE00E9489448093040681E060E00E94DF
:1028C00080448EE260E00E94804481E090E00E94BB
:1028D000CA3E80910506823081F48091040681FD14
:1028E0000CC082E00E94894480931F0B82E00E940A
:1028F00089448093200B81E0089581E168E50E947E
:10290000804485E090E00E94CA3E80E008951F93D5
:10291000DF93CF9300D000D000D0CDB7DEB7DE017B
:102920001196E0E0F1E086E001900D928150E1F730
:102930000E94A5110E943714182F882309F455C04E
:1029400083E90E948613182F882309F44EC082E081
:1029500080937A05113079F5FE013696A3E1BAE04D
:1029600080818D933197EC17FD07D1F71092610AA2
:1029700084E18093210A0E946B1E182F80930D0D15
:1029800080910D0D882389F110920D0D81E08093C7
:10299000540420E030E0F901E25FF74F8081F90153
:1029A000EB5DF54F80832F5F3F4F2033310599F763
:1029B0000E94A9291AC01330B9F48091210B8130EB
:1029C00099F40E94933F182F882379F00E944511B3
:1029D000182F81E16BE50E9480448EE190E00E9417
:1029E000CA3E1092540401C010E0812F26960FB603
:1029F000F894DEBF0FBECDBFCF91DF911F91089538
:102A00000E94A5110E943714882381F083E90E9457
:102A10008613882359F060910C0181E00E9477129F
:102A2000813021F480910C010E94CA1108951F93F6
:102A30000E94833D0E947C3E8AE090E00E94193E05
:102A40000E94964489E061E00E9480448FEF809369
:102A5000130A8093140A8093150A8093160A8093B0
:102A6000170A8093180A0E949F3D84E690E00E9416
:102A7000CA3E0E94ED150E9467031A9881E0809378
:102A80006204809363040E94F5150E94FD150E9464
:102A90005D0384E690E00E94CA3E0E9467030E94A4
:102AA000021610E488B3812788BB809154048823E0
:102AB00011F40E9487140E94D50C81E168E50E9400
:102AC00080440E945C180E94484F8091040D882326
:102AD00031F11092040D0E949A3E80915404882393
:102AE00081F010925404109252041092210B8091A4
:102AF000520B882311F40E9467030E9496440E949F
:102B0000F5158091AA07882311F01092AA078091E9
:102B1000210B882321F01092210B0E94F51585E0EE
:102B200090E00E94CA3EBECF9FEF9ABB1BBA97BBF4
:102B300018BA94BB95BB88E081BB12BA86EF82B904
:102B40008FE083B9909364009093650010926100C8
:102B500081E08093620084B3886F84BB16B813BE93
:102B600010BE12BE11BE1FBC85E08EBD1DBC1CBCBC
:102B700015BC10BE14BC13BC10928B0080938A004D
:102B8000109289001092880010926A001ABE19BE35
:102B900017BE10927D000895DC0140E050E020E077
:102BA00030E012C0FD01E40FF51FE081E327F0E003
:102BB000EE0FFF1FE35FFE4F80819181322F2227AE
:102BC000282739274F5F5F4F4617570758F3C9012A
:102BD0000895C09AC19AC29A0895C098C198C2989F
:102BE0000895C098C19AC2980895C09AC198C29891
:102BF0000895C098C198C29A08958BE185BD85E17A
:102C000083BD089515BC08950F931F93C298C09A71
:102C1000C19A0BE105BD15E113BD8AEF90E00E945A
:102C2000CA3E15BC84E690E00E94CA3E05BD13BDB5
:102C30008AEF90E00E94CA3E15BC84E690E00E94B4
:102C4000CA3E05BD13BD8AEF90E00E94CA3E15BC86
:102C500084E690E00E94CA3EC09AC198C2981F9133
:102C60000F910895FF920F931F9309E714E088E2F4
:102C70008093790410927A0410927B0439E2F32E47
:102C8000F0927C0484E580937D0481E680937E0449
:102C900081E080937F048091B3079091B407A801ED
:102CA000475F5F4F25E0880F991F2A95E1F76EE196
:102CB0000E9478028091B3079091B4070196909397
:102CC000B4078093B3078091B3079091B407C8010C
:102CD00067E20E9450458093A004F092A10482E331
:102CE00090E00E94CA3EC80169E20E94C9451F9156
:102CF0000F91FF9008950F931F9309E714E088E266
:102D00008093790410927A0410927B048BE0809374
:102D10007C0485EB80937D0481E080937E04809326
:102D20007F0480919407809380048091AA07809308
:102D30008104C80169E00E9450458093820489E2C1
:102D40008093830482E090E00E94CA3EC8016BE059
:102D50000E94C9451092AA071F910F9108950F93E1
:102D60001F930E948E2A09E714E088E28093790479
:102D700010927A0410927B048EE080937C0484E5A8
:102D800080937D0481E080937E0480915E04809333
:102D90007F0480915D048093800480915C04809323
:102DA000810480915A048093820480915904809315
:102DB00083048091580480938404C8016CE00E94CD
:102DC00050458093850489E28093860482E090E0F8
:102DD0000E94CA3EC8016EE00E94C9451F910F9132
:102DE00008950F931F930E948E2A09E714E088E24A
:102DF0008093790410927A0410927B048FE0809380
:102E00007C0484E580937D0481E080937E0480913E
:102E10005E0480937F0480915D04809380048091A0
:102E20005C048093810480915B0480938204809190
:102E30005A04809383048091590480938404809180
:102E4000580480938504C8016DE00E94504580932A
:102E5000860489E28093870482E090E00E94CA3E63
:102E6000C8016FE00E94C9451F910F910895EF922C
:102E7000FF920F93DF93CF9300D0CDB7DEB78DE2F3
:102E80009EE40E944A02082F8F3F09F401E10E944C
:102E90004D3D6091AC077091AD0780E090E02FEF61
:102EA0003FEF40E050E00E94A55F28E220937904C4
:102EB00010927A0410927B0425E120937C042AEB83
:102EC00020937D0410927E042FEF20937F04609363
:102ED0008004272F382F492F5527209381049C01E8
:102EE0004427552720938204692F7727882799271D
:102EF000609383048091AC079091AD07E091AC079B
:102F0000F091AD072091AC073091AD073A8329834A
:102F1000E090AC07F090AD0768EE73E00E94D05FE0
:102F2000605D25E5622760938404CF0164E670E06C
:102F30000E94D05FCB016AE070E00E94D05F805DAC
:102F400082278093850489819A816AE070E00E94DB
:102F5000D05FCB016AE070E00E94D05F805D822785
:102F600080938604C7016AE070E00E94D05F805DB4
:102F700082278093870484E28093880487E6809385
:102F800089048DE680938A0485E680938B04009300
:102F90008C0489E280938D0482E090E00E94CA3E16
:102FA00089E794E065E10E94C94580915404882333
:102FB00029F40E949A3E82E00E948B3E0F900F906F
:102FC000CF91DF910F91FF90EF9008958136D9F462
:102FD00081E0809394071092AA07809354040E9482
:102FE0009A3E1092040D809177080E948B3E8BE1EF
:102FF00085BD85E183BD84E690E00E94CA3E15BC94
:103000000E94140708958236C9F482E080939407E1
:1030100081E08093AA070E949A3E1092040D80914D
:1030200077080E948B3E8BE185BD85E183BD84E6F8
:1030300090E00E94CA3E15BC0E941407089590912A
:103040000B0680910A06843561F0853528F48134B9
:10305000B1F0833481F508C0853BA1F08A3B59F576
:1030600028C00E943216089580915404882319F5CF
:10307000892F0E94E6178AE090E00E94CA3E0E94D3
:10308000AF160895ACE0B6E020E030E08D91F90194
:10309000EB5DF54F80832F5F3F4F20323105B1F755
:1030A0000E94AC0B0E947B1682E090E00E94CA3E18
:1030B00008950E943717089580913E0F882321F0CC
:1030C00010923E0F0E941F1808950F931F938CE0DB
:1030D0008093740B80EA8093750B80916D0B8093C5
:1030E000760B80916E0B8093770B80916F0B8093A2
:1030F000780B8091700B8093790B01E71BE0C8017E
:1031000069E070E00E94CC1590937A0B80937B0B62
:1031100082EF80937C0B8CEB92E00E94BD3E1A9A6A
:10312000C8016CE00E94A44580E293E00E94BD3E8D
:103130001A981F910F910895FF920F931F93F82EE5
:1031400081E090E00E94CA3E01E71BE082E28093AA
:10315000710B80916C0B8093720B88E08093730BE2
:10316000F092740B1092750BC80165E070E00E943C
:10317000CC159093760B8093770B83E28093780B3A
:103180001A9A8AE090E00E94BD3EC80168E00E9461
:10319000A44582E090E00E94CA3E1A981F910F91C8
:1031A000FF9008951A9A82E28093710B80916C0BC4
:1031B0008093720B87E38093730B81EA8093740B87
:1031C000EEE0FDE0A5E7BBE081918D938DE0EE336D
:1031D000F807D1F781E79BE064E370E00E94CC152B
:1031E0009093A50B8093A60B83E28093A70B8CEBA7
:1031F00092E00E94BD3E1A9A81E79BE067E30E943D
:10320000A44583E090E00E94CA3E1A9808958CE09D
:103210000E94F54380910D0D882369F010920D0DE9
:103220008BE185BD85E183BD88EC90E00E94CA3EBC
:1032300015BC0E94A92908950E9407198091520483
:10324000882351F480915404882331F48AE090E07B
:103250000E94CA3E0E94964408950E94FE408091BA
:103260000C0D882381F181E08093520410920C0DA3
:103270008091DC0580936D0B2091DD0520936E0B12
:103280009091DE0590936F0B3091DF053093700BBA
:10329000882331F4222321F4992311F4332399F064
:1032A0000E949A3E1092040D83E00E948B3E0E9481
:1032B0007C3E1092090D88E290E00E94193E8BE15D
:1032C00085BD85E183BD08950E942D1988EC90E0AD
:1032D0000E94CA3E0E94964408956F927F928F92F8
:1032E0009F92AF92BF92CF92DF92EF92FF920F9395
:1032F0001F93CF93DF93882E3B0180EA8093530B7B
:103300008092540B82E090E063E57BE00E946E26A1
:103310008093550B9093560BC0E0D0E0FE01ED5A20
:10332000F44F808190E00E945F26FE01E058F54F47
:1033300080832196C430D10589F72BE7A22E28E09F
:10334000B22EE50180E090E061E070E00E94D625B9
:10335000899388E0CF37D807A9F780E090E061E053
:1033600070E00E940326982E888393E5E92E9BE067
:10337000F92EF701DE01149780819D9189278193B1
:103380008BE0E735F807C1F700E81AE08CE7C82EB4
:1033900088E0D82EF801D6019D919170808189270F
:1033A00081938AE0E438F807B9F782E263E00E948B
:1033B000804489E061E00E9480448AE360E10E94E9
:1033C0008044C0E0D0E0FE01E058F54F87E2608124
:1033D0000E948044FE01ED5AF44F82E060810E9419
:1033E00080442196C430D10571F78FE060E40E94DB
:1033F000804481E064E10E94804482E090E00E9489
:10340000CA3E8FE060E00E9480448AE360E00E9450
:10341000804484E00E9489448093590A8AE00E9493
:1034200089448093E70781E060E00E9480448EE257
:1034300060E00E94804482E00E94894482958F70FF
:1034400089258093620A8A3011F080E042C1CBE77F
:10345000D8E080E090E061E070E00E94D62589939A
:10346000A8E0CD38DA07A9F780E090E061E070E0ED
:103470000E940326888320E030E0F901ED5AF44FE2
:10348000D301A20FB31F8C9180832F5F3F4F203158
:10349000310599F780E190E063E57BE00E946E26BC
:1034A0008093630B9093640BC0E0D0E0FE01ED5A73
:1034B000F44F808190E00E945F26FE01E058F54FB6
:1034C00080832196C231D10589F7E3E5FBE0ABE7C4
:1034D000B8E080819D91892781938BE0E536F807DC
:1034E000C1F7E0E8FAE0ACE7B8E09D919170808127
:1034F000892781938AE0E239F807B9F782E263E02D
:103500000E94804489E061E00E9480448AE360E197
:103510000E948044C0E0D0E0FE01E058F54F87E211
:1035200060810E948044FE01ED5AF44F82E0608188
:103530000E9480442196C231D10571F781E064E197
:103540000E948044CBE7D8E080E090E061E070E04A
:103550000E94D6258993A8E0C139DA07A9F78AE342
:1035600060E00E94804481E060E00E9480448EE23E
:1035700060E00E94804480E38093530B8092540B60
:1035800082E090E063E57BE00E946E268093550B1D
:103590009093560BC0E0D0E0FE01ED5AF44F8081CD
:1035A00090E00E945F26FE01E058F54F808321964F
:1035B000C430D10589F7E3E5FBE08081D5019D9119
:1035C0005D0189278193BBE0E735FB07B1F7F60181
:1035D00091916F019170D8018C918927F8018193A5
:1035E0008F01FAE004381F0791F782E263E00E943E
:1035F000804489E061E00E9480448AE360E10E94A7
:103600008044C0E0D0E0FE01E058F54F87E26081E1
:103610000E948044FE01ED5AF44F82E060810E94D6
:1036200080442196C430D10571F781E064E10E94A5
:10363000804483E090E00E94CA3E8AE360E00E94FA
:10364000804484E00E9489448093590A8AE00E9461
:1036500089448093E70781E060E00E9480448EE225
:1036600060E00E9480448091590A823189F5C3E567
:10367000DBE082E00E94894489938BE0C536D8075D
:10368000C1F7EFE7F8E0D7018C91919189278D93ED
:103690007D01B5E6EB16BBE0FB06A9F782E190E001
:1036A000B701625170400E946E26892B89F420E098
:1036B00030E0F901EF5BF74FD901AD5AB44F8C916F
:1036C00080832F5F3F4F2031310599F781E001C0A2
:1036D0008AE0DF91CF911F910F91FF90EF90DF90E3
:1036E000CF90BF90AF909F908F907F906F900895F4
:1036F000EF92FF920F931F93CF93DF9398B320E441
:10370000922798BB90E39093530B8093540B82E0E5
:1037100090E063E57BE00E946E268093550B9093CA
:10372000560BC0E0D0E0FE01ED5AF44F808190E0EE
:103730000E945F26FE01E058F54F80832196C43039
:10374000D10589F73BE7E32E38E0F32EE70180E06F
:1037500090E061E070E00E94D625899388E0CF3741
:10376000D807A9F70E943026888303E51BE0F801FB
:10377000DE01149780819D91892781938BE0E73545
:10378000F807C1F7E0E8FAE0ACE7B8E09D91917086
:103790008081892781938AE0E438F807B9F782E2CB
:1037A00063E00E94804489E061E00E9480448AE3F3
:1037B00060E10E948044C0E0D0E0FE01E058F54F97
:1037C00087E260810E948044FE01ED5AF44F82E05E
:1037D00060810E9480442196C430D10571F781E058
:1037E00064E10E94804484E190E00E94CA3ECBE7FD
:1037F000D8E080E090E061E070E00E94D6258993F7
:10380000E8E0CD38DE07A9F78AE360E00E94804453
:1038100084E00E9489448093590A8AE00E94894486
:103820008093E70781E060E00E9480448EE260E0E0
:103830000E9480448091590A823179F5C3E5DBE02A
:1038400082E00E9489448993FBE0C536DF07C1F717
:10385000F8018081F70191917F018927F801819317
:103860008F01EC17FD07A1F782E190E063E57BE0B3
:103870000E946E26892B89F420E030E0F901EF5B8D
:10388000F74FD901AD5AB44F8C9180832F5F3F4FD2
:103890002031310599F781E001C080E0DF91CF91BF
:1038A0001F910F91FF90EF900895DF93CF93CDB7C5
:1038B000DEB760970FB6F894DEBF0FBECDBFDE0156
:1038C0001196EDE0F3E080E101900D928150E1F777
:1038D0008091210A8E5F0E94781B8823B1F020E03E
:1038E00030E0AE014F5F5F4FF901EF5BF74FDA0158
:1038F000A20FB31F90818C91981739F42F5F3F4F1F
:103900002031310589F781E001C080E060960FB673
:10391000F894DEBF0FBECDBFCF91DF910895EF9237
:10392000FF920F931F93CF93DF93182F062F82E2FE
:1039300067E00E94804489E061E00E948044112396
:1039400019F482E060E602C082E061E60E948044F1
:1039500082E0602F0E94804481E064E10E94804404
:1039600085E090E00E94CA3E84E00E9489448093F2
:10397000590A8AE00E9489448093E70781E060E069
:103980000E9480448EE260E00E9480448091590A47
:10399000843009F07CC1C0E0D0E082E00E9489441C
:1039A000FE01E859F44F80832196C430D105A9F770
:1039B0008091130A80935A0A8091140A80935B0ABB
:1039C0008091150A80935C0A8091160A80935D0AA3
:1039D0008091170A80935E0A8091180A80935F0A8B
:1039E000C0E0D0E0FE01EC59F54F9081FE01E859AE
:1039F000F44F8081892790E061E070E00E94D62535
:103A00002196C430D10571F720E030E0F901E85982
:103A1000F44F8081F901ED58F74F865F80832F5F67
:103A20003F4F2430310591F78091680B809308084F
:103A30008091690B8093090880916A0B80930A0832
:103A400080916B0B80930B0888E098E060E470E055
:103A50000E94BE1E809173088093530B809174085E
:103A60008093540B809175088093550B8091760854
:103A70008093560BE8E0F8E0A7E5BBE081918D93D9
:103A800088E0EC30F807D1F7C0E0D0E0FE01ED5A55
:103A9000F44F808190E00E945F26FE01E058F54FD0
:103AA00080832196C830D10589F7C0E0D0E0FE01BF
:103AB000ED58F74F808190E061E070E00E94D625DC
:103AC000FE01E558F74F80832196C430D10579F780
:103AD00080E090E061E070E00E94D62580937F084E
:103AE00080E090E061E070E00E94D625809380083D
:103AF00080E090E061E070E00E94D625809381082C
:103B000080E090E061E070E00E94D625809382081A
:103B10000E94302680938308E3E5FBE04BE7E42E28
:103B200048E0F42ED70180819D91892781938BE015
:103B3000EB35F807C1F7E0E8FAE0ACE7B8E09D91B3
:103B400091708081892781938AE0E838F807B9F776
:103B500082E263E00E94804489E061E00E94804448
:103B60008AE360E10E948044C0E0D0E0FE01E058BA
:103B7000F54F87E260810E948044FE01ED5AF44FC8
:103B800082E060810E9480442196C830D10571F79F
:103B900081E064E10E94804484E090E00E94CA3E9B
:103BA000CBE7D8E080E090E061E070E00E94D625AD
:103BB0008993E8E0CF37DE07A9F78AE360E00E9447
:103BC000804484E00E9489448093590A8AE00E94DC
:103BD00089448093E70781E060E00E9480448EE2A0
:103BE00060E00E9480448091590A843009F04FC0FF
:103BF00003E718E0E80182E00E9489448993F8E035
:103C0000C737DF07C1F78091680B80930808809160
:103C1000690B8093090880916A0B80930A08809150
:103C20006B0B80930B08F8018081F70191917F0164
:103C30008927F80181938F01F8E007371F0799F76B
:103C400088E098E060E670E00E94BE1E20E090915F
:103C5000730880910808981709F421E081E028276B
:103C6000909174088091090898132F5F90917508BE
:103C700080910A0898132F5F9091760880910B0825
:103C800098132F5F80E0222319F481E001C080E0C7
:103C9000DF91CF911F910F91FF90EF900895809148
:103CA000610A6091210A0E948F1C882391F00E9472
:103CB000551C882371F08091210A62E27BE00E940A
:103CC0006D19882331F0813011F08AE0089581E088
:103CD000089580E008958091610A6091210A0E9410
:103CE0008F1C882309F448C08091210A0E94781B08
:103CF000882309F441C020E030E0F901EF5BF74F81
:103D00008081F901E25FF74F80832F5F3F4F2031C1
:103D1000310599F78091210A8F5F0E94781B8823D3
:103D200059F120E130E0F901EF5CF74F8081F901B2
:103D3000E25FF74F80832F5F3F4F2032310599F7C5
:103D40008091210A8E5F0E94781B8823A9F020E2CF
:103D500030E0F901EF5DF74F8081F901E25FF74F45
:103D600080832F5F3F4F2033310599F781E168E56C
:103D70000E94804481E0089580E008952F923F9250
:103D80004F925F926F927F928F929F92AF92BF926B
:103D9000CF92DF92EF92FF920F931F93DF93CF9317
:103DA000CDB7DEB72E970FB6F894DEBF0FBECDBFEE
:103DB0009E878D87DC011396EC901397AE2CBB2465
:103DC000CC24DD248C9190E0A0E0B0E0B82FAA27AD
:103DD00099278827A82AB92ACA2ADB2AED85FE85D1
:103DE000818190E0A0E0B0E0DC0199278827A82A33
:103DF000B92ACA2ADB2A828190E0A0E0B0E0BA2F7B
:103E0000A92F982F8827A82AB92ACA2ADB2A86012F
:103E10007501F5E116950795F794E794FA95D1F7B2
:103E200082E090E0A0E0B0E0E822F9220A231B2320
:103E3000D601C501E3E1B695A79597958795EA95D3
:103E4000D1F784709070A070B070E826F9260A2728
:103E50001B27D601C50177E1B695A795979587955C
:103E60007A95D1F781709070A070B070E826F9262D
:103E70000A271B27D601C50151E1B695A79597954D
:103E800087955A95D1F788709070A070B070E82629
:103E9000F9260A271B27D601C5014FE0B695A7953D
:103EA000979587954A95D1F780719070A070B07002
:103EB000E826F9260A271B27D601C5013DE0B6955D
:103EC000A795979587953A95D1F780729070A070D5
:103ED000B070E826F9260A271B27D601C5012BE07A
:103EE000B695A795979587952A95D1F78074907088
:103EF000A070B070E826F9260A271B27D601C50155
:103F0000F9E0B695A79597958795FA95D1F78078BA
:103F10009070A070B070E826F9260A271B27A6012A
:103F20009501EDE15695479537952795EA95D1F797
:103F30002270307040705070D601C5017BE1B6959B
:103F4000A795979587957A95D1F784709070A07012
:103F5000B070282739274A275B27D601C501882753
:103F6000B7FD83959927AA27BB27282739274A27F2
:103F70005B27D601C501E9E1B695A7959795879589
:103F8000EA95D1F788709070A070B0702827392713
:103F90004A275B27D601C50177E1B695A795979586
:103FA00087957A95D1F780719070A070B0702827AE
:103FB00039274A275B27D601C501F5E1B695A795B4
:103FC00097958795FA95D1F780729070A070B07030
:103FD000282739274A275B27D601C501E3E1B69593
:103FE000A79597958795EA95D1F780749070A07002
:103FF000B070282739274A275B27D601C50171E110
:10400000B695A795979587957A95D1F78078907012
:10401000A070B070282739274A275B27542F432FD9
:10402000322F2227E226F326042715278701FF24B3
:10403000EE2435014601A7E0660C771C881C991C0C
:10404000AA95D1F78FEF90E0A0E0B0E06822792246
:104050008A229B22D601C501F7E0B695A7959795D0
:104060008795FA95D1F781709070A070B07068262E
:1040700079268A269B26D601C501E5E0B695A79547
:1040800097958795EA95D1F782709070A070B0707F
:10409000682679268A269B26D601C50173E0B69547
:1040A000A795979587957A95D1F784709070A070B1
:1040B000B070682679268A269B26D601C501B6955A
:1040C000A7959795879588709070A070B0706826B6
:1040D00079268A269B26D601C501880F991FAA1F1B
:1040E000BB1F80719070A070B070682679268A26F8
:1040F0009B26D601C50133E0880F991FAA1FBB1F5D
:104100003A95D1F780729070A070B07068267926C9
:104110008A269B26D601C50125E0880F991FAA1F74
:10412000BB1F2A95D1F780749070A070B07068267C
:1041300079268A269B26A6019501FDE0569547958E
:1041400037952795FA95D1F72270307040705070EE
:10415000D601C501EBE0B695A79597958795EA95A9
:10416000D1F784709070A070B070282739274A2743
:104170005B27D601C5017FE0B695A79597958795F2
:104180007A95D1F781709070A070B0702827392788
:104190004A275B27D601C501F9E0B695A795979503
:1041A0008795FA95D1F788709070A070B070282725
:1041B00039274A275B27D601C501E7E0B695A795C1
:1041C00097958795EA95D1F780719070A070B0703F
:1041D000282739274A275B27D601C50175E0B69500
:1041E000A795979587957A95D1F780729070A07072
:1041F000B070282739274A275B27D601C501F3E08D
:10420000B695A79597958795FA95D1F78074907094
:10421000A070B070282739274A275B27D694C79407
:10422000B794A79480E890E0A0E0B0E0A822B9227B
:10423000CA22DB222A253B254C255D25542F432FFE
:10424000322F222762267326842695266E247F2409
:104250008026912620E02BC064015301AA0CBB1CD0
:10426000CC1CDD1C69807A808B809C806224732446
:10427000842495248D819E81AF81B8856826792616
:104280008A269B2689859A85AB85BC8568267926F2
:104290008A269B2681E090E0A0E0B0E068227922A7
:1042A0008A229B226A0C7B1C8C1C9D1C2F5F130195
:1042B00024018DE056944794379427948A95D1F73A
:1042C000D401C3010FE0B695A795979587950A95F8
:1042D000D1F789839A83AB83BC83D401C3011CE0EB
:1042E000B695A795979587951A95D1F78D839E8357
:1042F000AF83B887D401C301FAE0B695A795979527
:104300008795FA95D1F789879A87AB87BC87261757
:1043100008F4A2CF64015301E5E1D694C794B794A1
:10432000A794EA95D1F782E090E0A0E0B0E0A8225F
:10433000B922CA22DB22D401C30173E1B695A79545
:10434000979587957A95D1F784709070A070B0702A
:10435000A826B926CA26DB26D401C30167E1B69593
:10436000A795979587956A95D1F781709070A07001
:10437000B070A826B926CA26DB26D401C30151E1B4
:10438000B695A795979587955A95D1F788709070AF
:10439000A070B070A826B926CA26DB26D401C301B6
:1043A0004FE0B695A795979587954A95D1F7807177
:1043B0009070A070B070A826B926CA26DB26D2015C
:1043C000C10180729070A070B070A826B926CA266C
:1043D000DB26D401C3013BE0B695A7959795879559
:1043E0003A95D1F780749070A070B070A826B92665
:1043F000CA26DB26D401C30129E0B695A795979577
:1044000087952A95D1F780789070A070B070A82613
:10441000B926CA26DB26A40193010DE156954795DE
:10442000379527950A95D1F72270307040705070FB
:10443000D401C3011BE1B695A795979587951A9569
:10444000D1F784709070A070B070282739274A2760
:104450005B27D401C3018827B7FD83959927AA2735
:10446000BB27282739274A275B27D401C301E9E165
:10447000B695A79597958795EA95D1F7887090702E
:10448000A070B070282739274A275B27D401C301C1
:1044900077E1B695A795979587957A95D1F780712D
:1044A0009070A070B070282739274A275B27D40165
:1044B000C30165E1B695A795979587956A95D1F75C
:1044C00080729070A070B070282739274A275B2728
:1044D000D401C30103E1B695A795979587950A95F1
:1044E000D1F780749070A070B070282739274A27C0
:1044F0005B27D401C30111E1B695A79597958795E0
:104500001A95D1F780789070A070B070282739275D
:104510004A275B27542F432F322F2227A226B32668
:10452000C426D5266501BB24AA2484017301E7E0D3
:10453000EE0CFF1C001F111FEA95D1F78FEF90E0E2
:10454000A0E0B0E0E822F9220A231B23D401C30132
:1045500077E0B695A795979587957A95D1F781706D
:104560009070A070B070E826F9260A271B27D401A6
:10457000C30165E0B695A795979587956A95D1F79C
:1045800082709070A070B070E826F9260A271B2769
:10459000D401C30153E0B695A795979587955A9591
:1045A000D1F784709070A070B070E826F9260A27C1
:1045B0001B27D401C301B695A79597958795887059
:1045C0009070A070B070E826F9260A271B27D40146
:1045D000C301880F991FAA1FBB1F80719070A07024
:1045E000B070E826F9260A271B27D401C30123E06F
:1045F000880F991FAA1FBB1F2A95D1F78072907050
:10460000A070B070E826F9260A271B27D401C30141
:10461000F5E0880F991FAA1FBB1FFA95D1F7807488
:104620009070A070B070E826F9260A271B27A20117
:104630009101227030704070507081E090E0A0E0F5
:10464000B0E0282239224A225B22E2E0220C331C0D
:10465000441C551CEA95D1F72225332544255525C0
:1046600089819A81AB81BC8181709070A070B0709B
:10467000282739274A275B278D819E81AF81B885FE
:1046800081709070A070B07073E0880F991FAA1F9E
:10469000BB1F7A95D1F7282739274A275B27D401F2
:1046A000C30167E0B695A795979587956A95D1F769
:1046B00080719070A070B070282739274A275B2737
:1046C00089859A85AB85BC8581709070A070B0702B
:1046D000F5E0880F991FAA1FBB1FFA95D1F728276D
:1046E00039274A275B27D401C301E3E0B695A79594
:1046F00097958795EA95D1F780749070A070B07007
:10470000282739274A275B279694879477946794BC
:1047100080E890E0A0E0B0E0682279228A229B2223
:104720002625372548255925542F432F322F222758
:10473000E226F32604271527EA24FB240C251D2551
:10474000812F9927AA27BB27ED85FE858083C80185
:10475000AA27BB278183BB27A12F902F8F2D828370
:10476000E3822E960FB6F894DEBF0FBECDBFCF9179
:10477000DF911F910F91FF90EF90DF90CF90BF904E
:10478000AF909F908F907F906F905F904F903F90F1
:104790002F900895FC01662311F485811EC0862F99
:1047A0008695869586956770882311F485810FC05C
:1047B000813011F484810BC0823011F4838107C0F1
:1047C000833011F4828103C0843049F4818190E008
:1047D00002C0959587956A95E2F7817008958530B6
:1047E00011F080E00895808190E002C09595879552
:1047F0006A95E2F781700895CF92DF92EF92FF926F
:104800000F931F937C01142FD22E0E94CA23C82E0F
:10481000C701612F0E94CA23182F110FC7016D2DE8
:104820000E94CA23D82EDD0CDD0CC701602F0E9428
:10483000CA23880F880F880F1C0D1D0D810F1F9133
:104840000F91FF90EF90DF90CF900895EF92FF923D
:104850000F93DF93CF9300D000D00F92CDB7DEB788
:104860007C0169E04BE02DE00FE00E94FC2389838E
:10487000C70161E143E125E107E10E94FC238A834E
:10488000C70169E14BE12DE10FE10E94FC238B831D
:10489000C70161E243E225E207E20E94FC238C8328
:1048A000C70169E24BE22DE20FE20E94FC236EE8B1
:1048B00074EBDB01098002C0B695A7950A94E2F774
:1048C000A17048E95EE99A010A8002C036952795F1
:1048D0000A94E2F721703070FA010B8002C0F6955D
:1048E000E7950A94E2F7E170F0700C8002C07695CB
:1048F00067950A94E2F76170707002C0569547950B
:104900008A95E2F7417050704295407F220F2A0F3E
:10491000EE0FEE0F2E0F660F660F660F260F240F99
:104920008AE098EEA7E5BCEE04C0B695A7959795EA
:1049300087952A95D2F781700F900F900F900F9066
:104940000F90CF91DF910F91FF90EF9008950F930B
:104950001F93DF93CF93CDB7DEB762970FB6F8946E
:10496000DEBF0FBECDBF8C0160E00E94CA238983E9
:10497000C80165E00E94CA238A83C80169E00E94D9
:10498000CA238B83C8016AE00E94CA238C83C801B2
:104990006CE00E94CA238D83C8016EE00E94CA2386
:1049A0008E83C8016FE00E94CA238F83C80161E132
:1049B0000E94CA238887C80163E10E94CA238987AD
:1049C000C80168E10E94CA238A87C80169E10E9480
:1049D000CA238B87C8016BE10E94CA238C87C80158
:1049E0006DE10E94CA238D87C80163E20E94CA2339
:1049F0008E87C80167E20E94CA238F87C80169E2D7
:104A00000E94CA23888BC8016AE20E94CA23898B4C
:104A1000C8016BE20E94CA238A8BFE01319690E0A6
:104A20009E012D5E3F4F81919827E217F307D9F73A
:104A3000892F62960FB6F894DEBF0FBECDBFCF911F
:104A4000DF911F910F910895EF92FF921F93DF93D3
:104A5000CF9300D000D000D0CDB7DEB7FC01162F29
:104A6000AC017E010894E11CF11C9C0190E8BE01A0
:104A7000695F7F4FD9018C9180FF03C0D7019C9360
:104A800002C0D7011C922F5F3F4F0894E11CF11C1C
:104A9000E616F70679F790E0DA018C9186958D930A
:104AA000AD019F5F9630C1F78081812B808381812A
:104AB0009981892B818382819A81892B8283838149
:104AC0009B81892B838384819C81892B848385812D
:104AD0009D81892B858326960FB6F894DEBF0FBE85
:104AE000CDBFCF91DF911F91FF90EF900895DF929E
:104AF000EF92FF920F931F93DF93CF9300D000D0DC
:104B000000D0CDB7DEB7D82EF62E80915A0A898311
:104B100080915B0A8A8380915C0A8B8380915D0A15
:104B20008C8380915E0A8D8380915F0A8E838E01D3
:104B30000F5F1F4FC8010E94A724E82EC8010E94E2
:104B40002624082F80E0F0FC8E2DF1FC02C090E0BE
:104B500001C0902F8D259827913011F060E001C0A1
:104B600060E8CE0101960E942425898180935A0A2B
:104B70008A8180935B0A8B8180935C0A8C8180930D
:104B80005D0A8D8180935E0A8E8180935F0A802FFB
:104B900026960FB6F894DEBF0FBECDBFCF91DF9142
:104BA0001F910F91FF90EF90DF900895DF92EF92A9
:104BB000FF920F931F93CF93DF93D62E00E0C0E0B8
:104BC000D0E0E82EFF24C7010C2E02C095958795F2
:104BD0000A94E2F781706D2D0E94772590E00C2EEB
:104BE00002C0880F991F0A94E2F7080F2196C83077
:104BF000D10549F7802FDF91CF911F910F91FF9041
:104C0000EF90DF900895DF92EF92FF920F931F9342
:104C1000CF93DF93D62E00E0C0E0D0E0E82EFF2453
:104C2000C7010C2E02C0959587950A94E2F7817012
:104C30006D2D0E94772590E00C2E02C0880F991FE1
:104C40000A94E2F7080F2196C430D10549F7802F66
:104C5000DF91CF911F910F91FF90EF90DF9008951A
:104C60000F931F93DF93CF9300D000D000D0CDB728
:104C7000DEB780915A0A898380915B0A8A8380918A
:104C80005C0A8B8380915D0A8C8380915E0A8D83A0
:104C900080915F0A8E838E010F5F1F4FC8010E94B3
:104CA000A724C8010E94262426960FB6F894DEBFDA
:104CB0000FBECDBFCF91DF911F910F91089590E06E
:104CC00020E031E087FD23279F5F983011F0880FA7
:104CD000F9CF80E0213009F081E00895A82FFB0191
:104CE00050E023E633E668E074E814C0808190E089
:104CF0002827392740E0C9019695879520FF04C0F1
:104D00009C012627372701C09C014F5F483099F747
:104D10005F5F31965A1750F3C901089580910E08CC
:104D200020910F0890E08F70907030E036952795B5
:104D30003695279546E0880F991F4A95E1F7280F89
:104D4000391F3093260A2093270A089580910F086F
:104D5000209110084091110890E08370907030E02D
:104D600050E0220F331F220F331F982F8827990FEF
:104D7000990F282B392B66E0569547956A95E1F7F0
:104D8000242B352B3093280A2093290A08958091EB
:104D900011082091120890E08F73907030E0A5E028
:104DA00036952795AA95E1F7F3E0880F991FFA95B4
:104DB000E1F7282B392B30932A0A20932B0A0895E8
:104DC000809112088F7180932C0A8091130882952C
:104DD0008F7080932D0A809113088F7080932E0A14
:104DE000089580910F08209110084091110890E0DB
:104DF0008370907030E050E0220F331F220F331F7A
:104E0000982F8827990F990F282B392BB6E05695A4
:104E10004795BA95E1F7242B352B3093280A209338
:104E2000290A089580911508869586958093310A00
:104E30000895609115082091160830E040911708F8
:104E400050E086E0220F331F8A95E1F7962F929566
:104E5000990F990F907C80E0282B392B5695479518
:104E600056954795242B352B3093320A2093330ADD
:104E7000409117082091180830E08091190890E0BF
:104E8000207C30709695879596958795282B392BA1
:104E9000942F9295990F990F907C80E0282B392BB5
:104EA0003093340A2093350A8091190890911A089A
:104EB00090E0F6E0880F991FFA95E1F79C012C7FAE
:104EC000307036952795369527959070282B392B7D
:104ED0002093360A089580910F08909110088370EE
:104EE000880F880F880F929596959770892B089553
:104EF00080910E0882958F708093250A8091250AF3
:104F0000853009F475C0863068F4823099F18330B9
:104F100018F48823A1F008958330A9F1843009F0B2
:104F200016C255C0873009F47DC0873008F47AC0B6
:104F3000883009F477C08F3009F009C295C00E940B
:104F40008E260E94A6260E94C7260E94E0268091F7
:104F5000140890E045E0969587954A95E1F780938F
:104F60002F0A1092300A1092310A0E94192780915C
:104F7000140823C00E948E260E94A6260E94C726DF
:104F80000E94E02630C00E948E260E94A6260E9423
:104F9000C7260E94E0268091140890E035E096959F
:104FA00087953A95E1F780932F0A1092300A109274
:104FB000310A0E94192780911B0890E08C71907033
:104FC00096958795969587958093370A08950E94C0
:104FD0008E260E94F1260E94C72610922C0A10925B
:104FE0002D0A10922E0A10922F0A1092300A17C022
:104FF0000E948E260E94F1260E94C7260E94E0266B
:105000008091140890E0B5E096958795BA95E1F700
:1050100080932F0A809114088F718093300A109228
:10502000310A1DC00E948E260E94F1260E94C726CA
:105030000E94E0268091140890E0A5E0969587955F
:10504000AA95E1F780932F0A809114088F718093BD
:10505000300A80911508869586958093310A0E94C2
:1050600019271092370A08950E948E2690910F08F2
:10507000809110089370990F990F990F82958695DA
:105080008770982B915F9093250A9F5041F58091EE
:10509000100890E08F7190702091110830E0F4E0DA
:1050A00036952795FA95E1F7E4E0880F991FEA9580
:1050B000E1F7280F391FC90180709F709093280A6B
:1050C0002093290A10922A0A10922B0A10922C0A75
:1050D00010922D0A10922E0A10922F0A28C1913098
:1050E00009F074C02091100830E02F713070809169
:1050F000110890E074E0969587957A95E1F764E061
:10510000220F331F6A95E1F7820F931F9C012070D5
:105110003F703093280A8093290A809111082091CA
:10512000120830E0220F232F221F330B319590E01D
:105130008F709070880F991F280F391F20932A0AAB
:105140008091120890E08877907023E0959587957C
:105150002A95E1F780932B0A809112082091130879
:1051600030E0220F232F221F330B319590E0877000
:105170009070880F991F280F391F20932C0A809157
:10518000130890E080779070F4E095958795FA95F4
:10519000E1F780932D0A809113082091140830E0E4
:1051A000220F232F221F330B319590E08F709070C8
:1051B000880F991F280F391F20932E0A80911408F9
:1051C00090E08E779070959587957CC0923009F02D
:1051D0007CC0809110082091110830E03695279509
:1051E00090E08F7190709695982F88279795879566
:1051F000280F391FC90180709F709093280A20934F
:10520000290A809111082091120830E093E0369528
:1052100027959A95E1F790E081709070B5E0880F3E
:10522000991FBA95E1F7280F391F20932A0A809118
:1052300012082091130830E0A5E036952795AA952D
:10524000E1F790E087709070F3E0880F991FFA956E
:10525000E1F7280F391F20932B0A80911308209122
:10526000140830E0220F232F221F330B319590E0DA
:105270008F719070880F991F280F391F20932C0A67
:105280008091140890E08877907063E095958795F9
:105290006A95E1F780932D0A8091150820911608F0
:1052A00030E0220F232F221F330B319590E08F71B6
:1052B0009070880F991F280F391F20932E0A809114
:1052C00016088F7780932F0A32C0953111F09631EE
:1052D00049F48091120880932A0A809113088093E0
:1052E0002B0A25C09731E9F48091120880932A0A8D
:1052F0008091130880932B0A8091140880932C0AC4
:105300008091150880932D0A8091160880932E0AAB
:105310008091170880932F0A809118088093300A93
:1053200006C0983121F48091120880932A0A1092C5
:10533000300A1092310A1092320A1092330A1092F7
:10534000340A1092350A1092360A1092370A0895DC
:1053500008950E94AC0B0895809172088823E9F0AB
:105360001092720881E0809352040E94FD1582E33E
:1053700090E00E94CA3E0E9402160E94782780E0B8
:1053800090E0FC01E25FF74F1082019689319105B0
:10539000C1F70E94AC0B1092520480E090E0FC0137
:1053A000EB5DF54F108201968E319105C1F708959E
:1053B0000E94AC2980915204882359F480915404AE
:1053C000882339F481E08093560485E090E00E94C0
:1053D000CA3E08951A9A81E090E00E94CA3E8BE787
:1053E0008093050CA6E0BCE020E030E0F901E25F2C
:1053F000F74F80818D932F5F3F4F29313105B1F7F2
:105400008DE780931F0C85E09CE06BE10E94A44532
:1054100084E090E00E94CA3E1A9808951A9A81E0AA
:1054200090E00E94CA3E8BE78093050CA6E0BCE0AA
:1054300020E030E0F901EB5DF54F80818D932F5F27
:105440003F4F2E313105B1F78DE78093240C85E075
:105450009CE060E20E94A44584E090E00E94CA3E85
:105460001A980895282F22952F709AE0299F90016D
:1054700011248F70820F0895282F6AE00E94C45F64
:10548000382F3295307F822F0E94C45F832F890F7F
:105490000895A898AA98AA9A08950F931F93A1987F
:1054A000A99A00E010E0A89A8AE090E00E94BD3E30
:1054B000A8988AE090E00E94BD3E83B31695827062
:1054C0008295880F880F807C182B0F5F083059F762
:1054D000812F82958F702AE0829FC00111241F7056
:1054E000810F1F910F9108950F931F93A19A082F79
:1054F00010E0A99800FDA99AA8988AE090E00E947F
:10550000BD3EA89A8AE090E00E94BD3E1F5F183021
:1055100011F00695EECF1F910F91089588B390E496
:10552000892788BB0E94492A8FEB0E94742A0E9417
:105530004D2A80935804809158048F7780935804A3
:105540000E944D2A809359040E944D2A80935A0448
:105550000E944D2A80935C040E944D2A80935D0432
:105560000E944D2A80935B040E944D2A80935E0422
:10557000AA98609158048CE692E60E9435036091E7
:1055800059048DE692E60E94350360915A048EE636
:1055900092E60E94350360915C048FE692E60E94D9
:1055A000350360915D0488E492E60E9435036091C2
:1055B0005B0489E492E60E94350360915E048AE40C
:1055C00092E60E9435030895BF92CF92DF92EF9248
:1055D000FF920F931F93809158040E943C2AB82E8B
:1055E000809159040E943C2AC82E80915A040E943E
:1055F0003C2AD82E80915C040E943C2AE82E80919F
:105600005D040E943C2AF82E80915B040E943C2A93
:10561000082F80915E040E943C2A182F0E94492A7C
:105620008EEB0E94742A8B2D0E94742A8C2D0E946E
:10563000742A8D2D0E94742A8E2D0E94742A8F2D1B
:105640000E94742A802F0E94742A812F0E94742A3B
:1056500080E00E94742A0E94492AAA986091580406
:105660008CE692E60E943503609159048DE692E63D
:105670000E94350360915A048EE692E60E9435033B
:1056800060915C048FE692E60E94350360915D04B0
:1056900088E492E60E94350360915B0489E492E617
:1056A0000E94350360915E048AE492E60E9435030D
:1056B0001F910F91FF90EF90DF90CF90BF900895D2
:1056C0008F929F92AF92BF92CF92DF92EF92FF9212
:1056D0000F931F938CE692E60E944A02182F8DE6E4
:1056E00092E60E944A02082F8EE692E60E944A0243
:1056F000F82E8FE692E60E944A02E82E88E492E6AF
:105700000E944A02D82E89E492E60E944A02C82EDC
:105710008AE492E60E944A02B82E812F0E943C2A17
:10572000882E802F0E943C2A982E8F2D0E943C2A82
:10573000A82E8E2D0E943C2AE82E8D2D0E943C2AF8
:10574000F82E8C2D0E943C2A082F8B2D0E943C2A7B
:10575000182F0E94492A8EEB0E94742A882D0E94DD
:10576000742A892D0E94742A8A2D0E94742A8E2DF3
:105770000E94742A8F2D0E94742A802F0E94742AFE
:10578000812F0E94742A80E00E94742AAA981F9197
:105790000F91FF90EF90DF90CF90BF90AF909F90D0
:1057A0008F90089581E80E94742A089580E80E94ED
:1057B000742A87E00E94742A089588E28093420D3B
:1057C0001092430D1092440D89E08093450D83EDB6
:1057D0008093460D81E08093470D8CE29EE40E9409
:1057E0004A028093480D82E49DE06FE00E9450459C
:1057F0008093490D89E280934A0D20917E0A309171
:105800007F0AE2E4FDE0D901AF56B74F81918D9355
:105810008DE0EB34F807D1F7275F3F4F30937F0AD5
:1058200020937E0A0895CF93DF9388E28093420D00
:105830001092430D1092440D80E18093450D82EC4F
:105840008093460D81E08093470DCAE6DCE4CE01EB
:105850000E944A02FE01E252FF43808321968CE4BB
:10586000CE36D807A1F7CEE6DCE4CE010E944A028C
:10587000FE01E252FF43808321968CE4C237D807B1
:10588000A1F782E49DE06EE00E9450458093500DA8
:1058900089E28093510D20917E0A30917F0AE2E4E3
:1058A000FDE0D901AF56B74F81918D938DE0E23580
:1058B000F807D1F7205F3F4F30937F0A20937E0A8D
:1058C000DF91CF91089588E28093420D1092430DAD
:1058D0001092440D89E08093450D81ED8093460D33
:1058E00081E08093470D8BE29EE40E944A02809300
:1058F000480D82E49DE06FE00E9450458093490D81
:1059000089E280934A0D20917E0A30917F0AE2E479
:10591000FDE0D901AF56B74F81918D938DE0EB3407
:10592000F807D1F7275F3F4F30937F0A20937E0A15
:10593000089588E28093420D1092430D1092440D19
:1059400089E08093450D8CEB8093460D81E0809338
:10595000470D80917D0A8093480D82E49DE067E0C9
:105960000E9450458093490D89E280934A0D209111
:105970007E0A30917F0AE2E4FDE0D901AF56B74FCD
:1059800081918D938DE0EB34F807D1F7275F3F4F7E
:1059900030937F0A20937E0A0895CF93DF9388E2A5
:1059A0008093420D1092430D1092440D81E5809337
:1059B000450D86EB8093460D81E08093470D8093E3
:1059C000480DCCE8DBE4CE010E944A02FE01E3541C
:1059D000FE43808321968BE4CC3CD807A1F7CCEC26
:1059E000DBE4CE010E944A02FE01E354FE438083C1
:1059F00021968BE4C43DD807A1F782E49DE06FE4D3
:105A00000E9450458093910D89E28093920D2091E0
:105A10007E0A30917F0AE2E4FDE0D901AF56B74F2C
:105A200081918D938DE0E339F807D1F72F5A3F4FDD
:105A300030937F0A20937E0ADF91CF9108950F93D0
:105A40001F931091430E0091440E8DE29EE40E943C
:105A50004A0298E29093420D1092430D1092440D29
:105A60009AE09093450D1093460D0093470D982FA3
:105A700092959F709093480D8F708093490D82E4AA
:105A80009DE068E00E94504580934A0D89E2809332
:105A90004B0D20917E0A30917F0AE2E4FDE0D901AE
:105AA000AF56B74F81918D938DE0EC34F807D1F765
:105AB000265F3F4F30937F0A20937E0A1F910F91FC
:105AC0000895CF93DF9388E28093420D1092430DA7
:105AD0001092440D81E18093450D85EC8093460D35
